:020000040000FA
:0400000081EF00F09C
:10000800F900F900F900F9004000F9004000F90092
:10001800F300F900F900F900F900F900F900F90016
:10002800F900400040004000F900F900F900F9002B
:10003800F900F900F900F900F900F900F900F900F0
:10004800F900F900F900F90040004000F900F90052
:10005800F900F900F9004000F900F900F900F90089
:10006800F500F900F900F900F900F900F900F900C4
:10007800F900F900F900F9004000F900F900F90069
:10008800F900F900F900F900F900F900F900F900A0
:10009800F900F900F900F9004000F90040004000BB
:1000A800F700F900F900F900F900F900F900F90082
:1000B800F900F900F900F900F900F900F900F90070
:1000C800F900F900F900F900F900F900F900F90060
:1000D800F900F900F900F900F900F900F900F90050
:1000E8004000F900F900F9004000400040004000DD
:1000F800F900F900F900F900FF00A6EF01F0000E81
:10010800C26E000EC16E000EBE6E000EC36E000EF3
:10011800BF6E000EC06E070ECA6ECB68C668C76891
:10012800C868C968040118691069770E086F070E56
:10013800206F28690069000E196F000E296F000EE4
:10014800216F880E096F000E016F000E116F000EEF
:100158000201896F000E886F000E876F000E866F90
:10016800000E0401226F000E2A6F000E026F000EAF
:100178000A6F000E126F000E1A6F03690B6913697C
:100188001B69070E236F2B6904690C6914691C69C4
:100198000F0E246F2C690B0E02013E6F0F0E406F7D
:1001A8000B0E3F6F1200B2EC01F0000E0E6E000E47
:1001B8000D6E7A0E0A6E030E0B6E000E0C6ED3ECEB
:1001C80001F0B40E0A6E030E0B6E000E0C6ECCEC32
:1001D80001F0C20E0A6E030E0B6E000E0C6EC5EC1B
:1001E80001F0D68ED68CF7EF00F081EF00F0AF90DB
:1001F800D690E60E0A6E030E0B6E000E0C6ED3EC54
:1002080001F09F80B490D682E80E0A6E030E0B6E42
:10021800000E0C6ECCEC01F0A480B890D694EA0ED7
:100228000A6E030E0B6E000E0C6EC5EC01F0A88072
:100238001200D68A000ED6BE010E0A6ED69E550E44
:100248000401596FAA0E596F5991000E5F6F000E85
:100258005E6F080E5D6F550E596FAA0E596F598162
:100268000AB002D0D69E01D0D68E03016381688180
:100278006C811200075008100910D8B446EF01F03D
:1002880048EF01F055EF01F002D855EF01F00500F5
:10029800FA6E0750FD6E0850FE6E0950FF6EFA5058
:1002A80012001200045005100610D8B45EEF01F0D9
:1002B80060EF01F06DEF01F002D86DEF01F005007D
:1002C800FA6E0450FD6E0550FE6E0650FF6EFA5031
:1002D80012001200015002100310D8B476EF01F09A
:1002E80078EF01F085EF01F002D885EF01F0050005
:1002F800FA6E0150FD6E0250FE6E0350FF6EFA500A
:1003080012001200000E0001606F000E616F000EF7
:10031800636F000E646F000E656F000E666F000E4F
:10032800676F000E686F1200600E0001AD6F000E5F
:10033800AF6F000EB36F080EB16F000EB06F000EF6
:10034800AC6F12000E6A0D6A0401080E5D6F000E94
:100358005E6F000E5F6F0001D7EF00F01DEC01F03B
:1003680086EC01F083EC00F098EC01F0FBEC00F077
:100378001200CE500D5C0D6E0E50D8A00E040E6EFD
:1003880012000AC501F50BC502F50CC503F51200EC
:100398000AC504F50BC505F50CC506F512000AC516
:1003A80007F50BC508F50CC509F51200CE500D244C
:1003B8000D6E000E0E200E6E1200000E0E6E000E58
:1003C8000D6E1200AF903EEC01F01100B49056ECA7
:1003D80001F01100B8906EEC01F01100110012004C
:0403E80012001200ED
:020000040020DA
:10000000FF0FFF0FFF0FFF0FFF0FFF0FFF0FFF0F80
:10001000FF0FFF0FFF0FFF0FFF0FFF0FFF0FFF0F70
:020000040030CA
:0A0000008CFFFFDF9FFFFFFFFFFFF3
:00000001FF
